:020000040800F2
:1020000000040020392200083B2200083B2200087F
:102010003B2200083B2200083B2200083B2200082C
:102020003B2200083B2200083B2200083D710008CB
:102030003B2200083B2200083B220008F1920008E6
:102040003B2200083B2200083B2200083B220008FC
:102050003B2200083B2200083B2200083B220008EC
:102060003B2200083B2200083B2200083174000894
:1020700045740008597400086D74000881740008E4
:1020800095740008A97400083B2200083B22000850
:10209000559300083B2200083B2200083B22000821
:1020A0003B2200083B2200083B2200083B2200089C
:1020B0003B2200083B2200083B2200081191000847
:1020C000259200083B2200083B2200083B22000822
:1020D0003B2200083B2200083B2200083B2200086C
:1020E0003B2200083B2200083B2200083B2200085C
:1020F0003B2200083B2200083B2200083B2200084C
:102100003B2200083B2200083B2200083B2200083B
:102110003B2200083B2200083B2200083B2200082B
:102120003B2200083B2200083B2200083B2200081B
:102130003B2200083B2200083B2200083B2200080B
:102140003B2200083B2200083B2200083B220008FB
:102150003B2200083B2200083B2200083B220008EB
:1021600072B6264880F30888254880F309882548F8
:1021700025490860022080F31488BFF36F8F03F0B5
:1021800005FC03F005FC4FF0553020491B4A9142F5
:102190003CBF41F8040BFAE71D49194A91423CBF84
:1021A00041F8040BFAE71B491B4A1C4B9A423EBFFD
:1021B00051F8040B42F8040BF8E700201849194ABB
:1021C00091423CBF41F8040BFAE703F01DFC03F019
:1021D00019FC154C154DAC4203DA54F8041B884722
:1021E000F9E705F017FE124C124DAC4203DA54F831
:1021F000041B8847F9E703F006BC00000004002038
:10220000000C00200020000808ED00E00000002085
:1022100000040020E4A70008000C0020B80D0020F6
:10222000B80D0020E8190020602100086021000896
:10223000602100086021000892E700F000F8FEE746
:102240002DE9F04FC1F80CD0C3689D46BDE8F08F72
:10225000002383F311882846A047002003F0A6FC42
:10226000FEE703F0FDFB00DFFEE7000053B94AB9CB
:10227000002908BF00281CBF4FF0FF314FF0FF308E
:1022800000F00CB8ADF1080C6DE904CE07F08EFA41
:10229000DDF804E0DDE9022304B07047704700BFB9
:1022A00080F0004002E000BF81F0004142001FBF0B
:1022B0005FEA410392EA030F7FEA226C7FEA236C14
:1022C0006AD04FEA1262D2EB1363C1BFD218414009
:1022D00048404140B8BF5B42192B88BF704710F09F
:1022E000004F40F4000020F07F4018BF404211F042
:1022F000004F41F4000121F07F4118BF494292EAAA
:10230000030F3FD0A2F1010241FA03FC10EB0C00D5
:10231000C3F1200301FA03F100F0004302D5494262
:1023200060EB4000B0F5000F13D3B0F1807F06D30F
:1023300040084FEA310102F10102FE2A51D2B1F107
:10234000004F40EBC25008BF20F0010040EA0300FC
:102350007047490040EB0000013A28BFB0F5000F7C
:10236000EDD2B0FA80FCACF1080CB2EB0C0200FA32
:102370000CF0AABF00EBC25052421843BCBFD04081
:102380001843704792F0000F81F4000106BF80F4FB
:1023900000000132013BB5E74FEA41037FEA226CBE
:1023A00018BF7FEA236C21D092EA030F04D092F089
:1023B000000F08BF0846704790EA010F1CBF0020BD
:1023C000704712F07F4F04D1400028BF40F000401A
:1023D000704712F100723CBF00F50000704700F03A
:1023E000004343F0FE4040F4000070477FEA226261
:1023F00016BF08467FEA23630146420206BF5FEA32
:10240000412390EA010F40F4800070474FF0000331
:1024100004E000BF10F0004348BF40425FEA000CF8
:1024200008BF704743F0964301464FF000001CE0A0
:1024300050EA010208BF70474FF000030AE000BFF6
:1024400050EA010208BF704711F0004302D5404234
:1024500061EB41015FEA010C02BF844601460020A6
:1024600043F0B64308BFA3F18053A3F50003BCFAC1
:102470008CF2083AA3EBC25310DB01FA02FC63446E
:1024800000FA02FCC2F12002BCF1004F20FA02F275
:1024900043EB020008BF20F00100704702F1200268
:1024A00001FA02FCC2F1200250EA4C0021FA02F2C9
:1024B00043EB020008BF20EADC7070474FF0FF0CCE
:1024C0001CEAD0521EBF1CEAD15392EA0C0F93EAC9
:1024D0000C0F6FD01A4480EA010C400218BF5FEA6B
:1024E00041211ED04FF0006343EA501043EA5111DE
:1024F000A0FB01310CF00040B1F5000F3EBF4900D8
:1025000041EAD3715B0040EA010062F17F02FD2ADB
:102510001DD8B3F1004F40EBC25008BF20F00100BE
:10252000704790F0000F0CF0004C08BF49024CEAD5
:10253000502040EA51207F3AC2BFD2F1FF0340EA67
:10254000C250704740F400004FF00003013A5DDCD8
:1025500012F1190FDCBF00F000407047C2F1000219
:10256000410021FA02F1C2F1200200FA02FC5FEA06
:10257000310040F1000053EA4C0308BF20EADC7050
:10258000704792F0000F00F0004C02BF400010F4C2
:10259000000F013AF9D040EA0C0093F0000F01F06F
:1025A000004C02BF490011F4000F013BF9D041EA91
:1025B0000C018FE70CEAD15392EA0C0F18BF93EA93
:1025C0000C0F0AD030F0004C18BF31F0004CD8D1BD
:1025D00080EA010000F00040704790F0000F17BF44
:1025E00090F0004F084691F0000F91F0004F14D08A
:1025F00092EA0C0F01D142020FD193EA0C0F03D1E2
:102600004B0218BF084608D180EA010000F00040E4
:1026100040F0FE4040F40000704740F0FE4040F4BF
:10262000400070474FF0FF0C1CEAD0521EBF1CEA5E
:10263000D15392EA0C0F93EA0C0F69D0A2EB03027C
:1026400080EA010C49024FEA402037D04FF0805316
:1026500043EA111143EA10130CF000408B4238BFDB
:102660005B0042F17D024FF4000C8B4224BF5B1AE9
:1026700040EA0C00B3EB510F24BFA3EB510340EA37
:102680005C00B3EB910F24BFA3EB910340EA9C00E5
:10269000B3EBD10F24BFA3EBD10340EADC001B0155
:1026A00018BF5FEA1C1CE0D1FD2A3FF650AF8B42F9
:1026B00040EBC25008BF20F0010070470CF0004C06
:1026C0004CEA50207F32C2BFD2F1FF0340EAC25031
:1026D000704740F400004FF00003013A37E792F0F2
:1026E000000F00F0004C02BF400010F4000F013A50
:1026F000F9D040EA0C0093F0000F01F0004C02BF4B
:10270000490011F4000F013BF9D041EA0C0195E7B3
:102710000CEAD15392EA0C0F08D142027FF47DAF4C
:1027200093EA0C0F7FF470AF084676E793EA0C0F3C
:1027300004D14B023FF44CAF08466EE730F0004C3A
:1027400018BF31F0004CCAD130F000427FF45CAFCA
:1027500031F000437FF43CAF5FE700BF4FEA400237
:10276000B2F1FE4F0FD34FF09E03B3EB12620DD9BF
:102770004FEA002343F0004310F0004F23FA02F029
:1027800018BF404270474FF00000704712F1610FD0
:1027900001D1420205D110F0004008BF6FF00040A7
:1027A00070474FF000007047844641EA000313F081
:1027B000030349D1403A23D30B6803604B6843605D
:1027C0008B688360CB68C3600B6903614B694361AD
:1027D0008B698361CB69C3610B6A03624B6A436295
:1027E0008B6A8362CB6AC3620B6B03634B6B43637D
:1027F0008B6B8363CB6BC36340304031403ADBD299
:1028000030320BD30B6803604B6843608B68836086
:10281000CB68C36010301031103AF3D20C3205D3BC
:1028200051F8043B40F8043B043AF9D2043208D092
:10283000D2071CBF11F8013B00F8013B01D30B8804
:1028400003806046704700BF082A13D38B07B1D0BE
:1028500010F00303AED0C3F10403D21ADB071CBF90
:1028600011F8013B00F8013BA4D331F8023B20F8FA
:10287000023B9FE7043AD9D3013A11F8013B00F833
:10288000013BF9D20B7803704B7843708B788370DF
:1028900060467047F0B4860746D0541E002A3CD0EC
:1028A000CAB2034602E014F1FF3436D303F8012B19
:1028B0009D07F8D1032C29D9CDB245EA05250F2C67
:1028C00045EA054533D9A4F11006360903F120077E
:1028D00007EB061703F1100242E9045542E90255DD
:1028E0001032BA42F8D1721C14F00C0F03EB021232
:1028F00004F00F0613D0331F23F0030304331344F3
:1029000042F8045B9342FBD106F003042CB1C9B238
:102910001C4403F8011B9C42FBD1F0BC70473446B9
:102920001346002CF3D1F8E714460346C2E71A46D3
:102930002646E0E7032A70B412D940EA0105AD0744
:1029400004460B4620D11946204653F8045B54F840
:10295000046BAE4218D1043A032A20461946F2D835
:10296000541E72B103780A789A4208BF241806D020
:102970000CE010F8013F11F8012F934206D1A0425C
:10298000F7D1002070BC7047541EEBE7981A70BC5A
:10299000704700BF20F0030110F00300C0F10000F9
:1029A00051F8043B00F1040C4FEACC0C6FF000022C
:1029B0001CBF22FA0CF213434FF0010C4CEA0C2C12
:1029C0004CEA0C4CA3EB0C0222EA030212EACC12F2
:1029D00004BF51F8043B0430F4D0C2F1000102EA14
:1029E0000102B2FA82F2C2F11F0200EBD20070477C
:1029F000034600091CBF034604209A081EBF134665
:102A00000230C0B25B081CBF0130C0B2704702097F
:102A1000002A03460BBF03461346002004209A08F1
:102A20001CBF134602305B081CBF0130C0B27047A8
:102A30000123034A8340107803431370704700BF9B
:102A4000801200200123034A8340107820EA03000B
:102A5000107070478012002037B5ADF80400C0F345
:102A6000072004281FD89DF80430042B1BD803EB43
:102A7000800303440120002403F007029040C3F3C5
:102A8000CF030A4A03EB4303C0B2134413F8015FB8
:102A900021FA04F242F300026A40024001346A4023
:102AA000032C1A70F2D103B030BD00BFF714002020
:102AB00013B5ADF80400C0F3072004281CD89DF816
:102AC0000430042B18D8002200EB800018440B4976
:102AD00000F00704C0F3CF0000EB400001441046B3
:102AE0008B5CE34003F00103934001321843032A57
:102AF000C0B2F5D102B010BD0020FBE7F8140020F1
:102B000030B50124084D04FA00F02B7804FA01F1E5
:102B10000143C8B21940884204FA02F406BF2343B5
:102B2000DBB2A3432B7030BD80120020054B064A58
:102B30001B7812789A4200D17047013303F00703E3
:102B4000F8E700BF991500209815002010B5174B25
:102B50001B7893B1164B93F90030002B0DDAEF2858
:102B60004FEAD00208D8134B134400F007020120AB
:102B700090409A781043987010BD4FF0FF320023B8
:102B80000D4911F8014BA042F6D0B2F1FF3F02D13E
:102B9000002C08BF1A460133DCB2062C5BB2F0D120
:102BA000531CE9D0034B1A449070E5E7AA0D0020AE
:102BB0004A120020940E0020960E002010B5124BF1
:102BC0001B789BB1114B93F90030002B0EDAEF28E4
:102BD0004FEAD00209D80E4B00F00700134401223F
:102BE0008240987820EA0200987010BD06230021E8
:102BF000084A12F8014B013BA04208BF02F8011C31
:102C000013F0FF03F5D1F0E7AA0D00204A120020CF
:102C1000940E0020960E002010B509490B7823EA87
:102C2000000010F00704087009D1984207D0054B46
:102C30005B785B0703D5C008FFF704FF0C7010BD7D
:102C4000D01400204A120020024A137823EA00031D
:102C500013707047D9140020E72850D8DF2807D810
:102C6000312865D00ED8292858D02A2867D0704737
:102C7000A0F1E003072B42D8DFE803F01541242937
:102C800033413D42392804D0822802D0352840D033
:102C90007047334B1A7892075CD15B7813F0080FBA
:102CA00018BF292070472E4A1378D9074ED452787E
:102CB00012F0010F23D013F0100F08BFE32018BF4C
:102CC00000207047264B1B7813F0040FF2E7244ACC
:102CD000137859073CD45278D2073BD413F0100F25
:102CE000EDE71F4B5A78910709D51B7813F0100FA9
:102CF00008BFE720E3E71A4B1B781A07F6D47047A2
:102D0000174A1378190727D452789107E6D5E4209B
:102D10007047134B1B7813F0200FC1E7104B1A7844
:102D200092061BD45B7813F0080F18BF3920704748
:102D30000B4B1B7813F0400F18BF2A207047084B2D
:102D40001B7813F0400F18BF3120704739207047AF
:102D5000E2207047E0207047E62070473520CEE73C
:102D60004A12002010B52F4C21784B0713D500F0E4
:102D70001402A2F1040C00F01803DCF1000242EB93
:102D80000C02A3F1080CDCF1000343EB0C039A42A4
:102D900018BF80F00C000B0713D500F01402A2F14D
:102DA000140C00F01803DCF1000242EB0C02A3F15A
:102DB000180CDCF1000343EB0C039A4218BF80F0BF
:102DC0000C006478E30713D500F0110202F1FF3C18
:102DD00000F01803DCF1000242EB0C02A3F1080C36
:102DE000DCF1000343EB0C039A4218BF80F00900AA
:102DF000A30711D500F0110200F01803A2F111048D
:102E00006242A3F1180C6241DCF1000343EB0C03B6
:102E10009A4218BF80F00900CB0648BF00F0E700D7
:102E200010BD00BF4A12002038B5FFF715FFB0F5FE
:102E3000A44F044643D2B0F5A04F80F0AC80DF2809
:102E400016D8CC2800F28A80A7280AD8A42878D8D7
:102E5000012804D0031F9BB2A12B28BF00242046C9
:102E600038BDA0F1A8039BB21A2B6FD90024F6E756
:102E7000B0F5804F19D2B0F5005F80F09C80E72854
:102E8000EDD9A0F580739BB2B3F5F85FEED2C0F335
:102E90000720FFF767FF0546E0B2FFF7DDFE2D02D2
:102EA00005F4F8550543ACB2D9E7C0B2FFF7D4FE3C
:102EB00004F47064044344F42044A4B2CFE7B0F5B2
:102EC000A54F21D245F25F23984251D845F23F23C6
:102ED00098420ED845F21F23984242D80124C0F3ED
:102EE000850300F00300844044EA431444F40D4495
:102EF000E3E70124C0F3820300F00300844044EAC6
:102F0000431444F40C44D8E745F2BF2398420AD84E
:102F100045F29F23984200F01F0034D84AF2F4048F
:102F200044EA00249BE7A0F5A543403B9BB21F2B3E
:102F30009CD8040204F4F85444F4204444F0F0040F
:102F40008DE7A0F1240444F48044B6E7224B5834C2
:102F5000E4B233F8144044F4884480E740F4A044D9
:102F6000ABE74AF2F10300F01F0443EA042476E7DA
:102F70000124C0F3820300F00300844044EA4314B8
:102F800044F40A4499E7FFF7EDFE040204F4F85410
:102F900044F4005463E700F01F00FFF7E3FEC306AC
:102FA000C4F3431448BF0001240200B2204340F49C
:102FB000104084B253E7C0F30420FFF7D3FE054668
:102FC000E0B2FFF749FE2D0205F4F85545EA00048A
:102FD00044F4005471E700BF209C000800207047B3
:102FE0000020704730BFFDE700EB4003C3EB031345
:102FF00000EB830003B2002B07DAB3F1800001D5A8
:1030000003F17F0040F30720704703F18000F9E7E8
:103010000E4B1B78D90710D49A0710D45B0710D435
:103020000B4B1B787BB11D2B4FF0500003D8434353
:103030001E20B3FBF0F0C0B270471420FBE728203D
:10304000F9E75020F7E70820F5E700BFA9120020B4
:10305000AA1200200F4B1B78D90710D49A0710D45E
:103060005B0712D40C4B1B786BB1272B0DD8282291
:10307000DB00B3FBF2F398B24BB1C0B27047022051
:10308000FBE70420F9E70120F7E70820F5E7012036
:10309000704700BFA9120020AB1200200A2208B519
:1030A00000210548FFF7F6FB0023044A1370044A89
:1030B0001370044A137008BD95120020AA12002054
:1030C000AB120020A912002030B50F4C94F8043444
:1030D000BBB9302282F311880C490D48CA698B6054
:1030E00055682843506055680A48284350600A4A8A
:1030F000136102220A7183F31188012084F8040409
:1031000030BD0220FCE700BF9C150020EC0D002024
:1031100023016745AB89EFCD002002400B4A92F8AE
:10312000043483B1302383F311880949C8690369E2
:1031300043F08003036101200023087183F31188A9
:1031400082F8043470470220704700BF9C150020AD
:10315000EC0D00200A4B73B51D68CB430646ADF855
:103160000630084B0222186871190368DC680DF1FB
:103170000603A047B0FA80F0400902B070BD00BF5E
:10318000280C0020E811002038B5074B0C461D68BC
:10319000064B0544186803685B689847436901203B
:1031A0005B5BDB43238038BD280C0020E811002046
:1031B000024B186808B1036818477047AC1100202B
:1031C00008B5FFF7F5FF08BD124A30B41468F4B132
:1031D00002226FF07E0502700179427941EA0221F4
:1031E00009B2A942B8BF29467F29A8BF7F21C27969
:1031F0008170817941EA02210AB2AA42B8BF2A4607
:103200007F2AA8BF7F22C270A36830BC184730BC99
:10321000704700BFAC1100200B4B07B51A888242E3
:103220000ED01880094B1B6853B103228DF805009E
:10323000000A8DF80600DB688DF8042001A8984785
:1032400003B05DF804FB00BF72120020AC11002037
:103250000B4B07B51A8882420FD01880094B1B68A8
:103260005BB104228DF80500000A8DF80600DB68CA
:103270008DF804200DEB0200984703B05DF804FBC5
:103280004E120020AC11002010B54B7842789A42C3
:1032900037D190F902301BB191F902209A4230D116
:1032A00090F903301BB191F903209A4229D1427958
:1032B000037943EA02231AB233B10B794C7943EA1A
:1032C00004231BB29A421CD1C279837943EA0223B8
:1032D0001AB233B18B79CC7943EA04231BB29A42F8
:1032E0000FD190F909301BB191F909209A4208D108
:1032F00090F9080020B191F90830181A18BF012080
:1033000010BD0120FCE70000302370B583F3118865
:10331000124B13481349DC6903680A68E41AA24295
:10332000114A0AD9A3F58333E03B036010680F4BC1
:1033300004F583340344E03413600C601668002104
:1033400081F311884FF47A7509480023E4FB0501E5
:10335000084AFEF78BFF304470BD00BFE00F00202D
:103360003015002078120020AC12002088598F02FE
:103370009F860100A086010010B5FFF7C5FF0D4B29
:1033800080B259791A79DC7942EA0122997941EAC5
:1033900004210A4318BF084ABDE8104018BF108036
:1033A0001A7A5B7A13431CBF044B18800148FFF75D
:1033B0000BBF00BF951200207C1200207E1200205F
:1033C000BFF34F8F0549064BCA6802F4E06213430E
:1033D000CB60BFF34F8F00BFFDE700BF00ED00E003
:1033E0000400FA0542EA0122100A032811B214D09F
:1033F0000CD8012828D002280CD15B23144A154888
:10340000002A4260036008BF1046704721280DD093
:10341000222812D000231A46F1E7CBB2022BF9D8AA
:103420000D4A0E4952F82320CB5CE8E7022BF1D875
:103430000B4A52F823200923E1E7022BEAD8094A74
:10344000094952F82320EFE71223084AD7E700BFC3
:10345000779C000864110020149C0008569C00080A
:103460005C9C0008689C0008749C0008D29C0008C2
:103470007047000090F87A10074A0229137807D1A4
:10348000012B01D0062B05D15278044B1A707047DE
:10349000024A1370704700BFE01400202812002079
:1034A000014B1878704700BF2812002070470000B9
:1034B000034A516853685B1A9842FBD8704700BFB3
:1034C000001000E038B52025034C48206561FFF767
:1034D000EFFF256138BD00BF000C01400368816823
:1034E0009A680A449A60426813605A6000234FF059
:1034F000FF320360014B9A61704700BFE00F00206C
:10350000034610B51B68984203D09C688A689442B1
:10351000F8D25A680B604A601160596010BD000013
:10352000302383F311880D4B5B6813F4006312D0D2
:10353000EFF309834FF08072203BDA6183F309884F
:10354000074A1168D2688968926891428CBF054A1F
:10355000054A9A61704783F31188704700ED00E0D7
:10356000E00F00206322000866220008C368C269D9
:10357000013BC3604369134482694361934224BFA2
:10358000436A436100238362036B03B118477047AA
:10359000034640691A69824201D1DB681BB950F8C1
:1035A000043B0B60704700231846FAE70369196073
:1035B000C268013AC260C2691344826903619342DE
:1035C00024BF436A036100238362036B03B118477E
:1035D0007047036810B55B680C469847C36813B121
:1035E00053F8340010BD00696043FBE790F8763073
:1035F000074A80F87E3043F0800310B5D3644368F7
:1036000004461B680BB1012198470323237010BDAA
:10361000005C004070B50124468904FA01F5354389
:10362000458100EB8100C568A869826000220360C3
:103630004260C2602BB16A8A013B1344B3FBF2F3D0
:103640009CB2084A048252F8213023F4904323F0BC
:10365000700383F4405343F4004343F0800342F883
:10366000213070BD005C00400048704718A0000881
:10367000F7B505460079052843D0042028711F209E
:103680004FF6FF7CEC69E060206940F001002061AA
:103690000AB910462DE01E4621F00100ADF804C025
:1036A00000F1006016F8017B01F001030DF1080E36
:1036B0007344013A03F8047C01F10101334601D05F
:1036C000CF07EFD4BDF804700780E668F607FCD496
:1036D000E66806F01F0E16F0100FC4F80CE007D1D4
:1036E000760703D4008880B28742D1D0032000E05F
:1036F0000620236923F00103236102232B7103B009
:10370000F0BD0120FBE70720704710B503790446A0
:10371000052B14D005231F220371C369DA601A69CF
:1037200042F002021A61FFF754FFE36900F1006002
:10373000586100201A6942F040021A6110BD012050
:10374000FCE710B503790246052B10D1C469E06887
:1037500010F0010006D1236923F036032361022310
:10376000137110BD01200029FBD00860F9E700208B
:10377000F7E710B503790446052B12D0FFF729FFB0
:1037800000F100631A1F03F57F7352F8041F013123
:1037900005D19A42F9D100200223237110BD0520E2
:1037A000FAE70120FAE7C36A59680A6822F00F02B3
:1037B0000A60597B1A680E238B4053600022836A8B
:1037C0009A607047F0B50127194B857B5A681E68CF
:1037D00007FA05F1846822EA010226EA010614408C
:1037E0001E605A6014D1C17B4A09920001F01F008B
:1037F00002F1604202F5614207FA00F0C2F880006F
:10380000C2F8800101F1604202F5614282F8004392
:1038100000216A1C43F8321003EBC203596073069F
:1038200005D1044B5A6922F001025A615B69F0BD6F
:103830006C1100200010024010B40468437B216822
:103840004268D940126801F00E010A420ED0827B14
:1038500001FA03F36360064B013253F832402CB196
:1038600003EBC2035868234610BC184710BC7047CE
:103870006C1100202DE9F0414FF0010E254D9046CE
:103880001A462B680EFA00F61E4204463FD1334317
:103890002B607444204B45F8348005EBC40462600F
:1038A0005A691E4F42EA0E025A614FEA001C07EBAA
:1038B00000105B696C6883681C4215D1C37B0901E9
:1038C00003F1604202F56142C9B282F8001303F0CD
:1038D0001F025B099B0003F160430EFA02F203F53D
:1038E0006143C3F880211A6007EB0C014B68497BE8
:1038F0001A68264322F00F021A600E2257F80C4075
:103900008A40626000226E601A60BDE8F08100208B
:10391000FBE700BF6C110020001002405C9E000815
:103920004FF40042436B1A6000221A605A605A61D9
:10393000036B59680A6822F00F020A605A7B196803
:103940000E2303FA02F24A60C26A5068016821F04D
:103950000F0101601168527B93404B60704700007B
:103960000B0704D572B60A4B0A4ADA65FEE7036B09
:10397000416B5868026822F00F020260587B1A6897
:103980000E23834053604B6843F400734B607047D1
:10399000E00F0020559B00080F4B10B51B6D040174
:1039A00003F1804303F5C04303EB0010E3581144D7
:1039B00003F1005303F540535B004260002AA1EB82
:1039C000020400DC10BD20786478023A40EA04204A
:1039D00043F8040BF2E700BF005C004038B50C462A
:1039E000012511460289A5401543058100EB84009D
:1039F000C26800255069128A03609A4228BF1A469D
:103A0000816002614560C5602046FFF7C5FF084A36
:103A100052F8243023F4F04323F0400383F03003C2
:103A200043F4004343F0800342F8243038BD00BF24
:103A3000005C004013B5446BE36F1A6811780429E9
:103A400015D1217A022912D11979012312898B40CB
:103A500013420CD101A904F14400FFF799FD02467D
:103A600028B1E06F019B01790068FFF7B7FF02B052
:103A700010BD000038B590F864300446002B41D0EA
:103A8000063BDAB20F2A37D80F2B35D8DFE803F020
:103A90003A343408263534343434343434343A3A0D
:103AA00090F87A3090F87B20C56E43EA02239D425D
:103AB00014D2C3681B8AB5FBF3F203FB12556DB930
:103AC000302383F311882B462A462946FFF786FFC9
:103AD00085F311880A2384F864300DE0142384F8F8
:103AE0006430302383F31188002320461A46194698
:103AF000FFF790FD81F3118838BD036F03B198473C
:103B00000023E8E748F280000D490B6823F4F043F6
:103B100023F0400383F0100202430A600B6823F491
:103B2000904323F0700383F4805303430B60636876
:103B30001B6813B10621204698470623CBE700BF38
:103B4000005C004010B590F864300446142B36D069
:103B500024D8062B05D001D81BB110BD093B022B80
:103B6000FBD848F280001C490B6823F4F04323F093
:103B7000400383F0100202430A600B6823F4904371
:103B800023F0700383F4805303430B6063681B6866
:103B900013B1062120469847062319E0152BDCD1E6
:103BA0000B2380F86430302383F3118800231A46F6
:103BB0001946FFF713FF002383F31188CDE7C3688D
:103BC0009B695B68002BC8D1036F03B19847002342
:103BD00084F86430C1E700BF005C004000EB810363
:103BE000F0B5DE68336803F00303032B47D0002BE6
:103BF0000CBF4FF400740024224B4FEA011C1A6DD5
:103C0000736902F1804202F5C04202EB011573B103
:103C100000236B60338AD0F88470013323F00103F2
:103C20003B44C0F8843044F020044CF80270B3697F
:103C3000DBB1728A44F40054531E3E2A93BF43F012
:103C40000103114E5B0901338BBF46EA83235B02FC
:103C50009BB203F47C43EB600132D0F8843022F055
:103C600001021A44C0F88420AB608B0003F180434A
:103C700003F5B8431A680C431A601C60F0BD4FF49A
:103C8000C064B9E7005C00400080FFFF0021802293
:103C90000A4B0B4819655964DA644268D2688A4253
:103CA0000CBF4FF43C424FF43E421A644023C0F82C
:103CB0008430044BC360FFF791BF00BF005C00403D
:103CC0000C0E002044A00008302310B583F31188A7
:103CD0001B4C1C4B0021202204F10C006360FEF7FA
:103CE000D9FD2178012925D1174BDA6942F4000268
:103CF000DA61DA691A6942F400021A611A6922F477
:103D000000021A61114A1B691164D021104B83F81B
:103D100013134FF40021C3F880111960E02183F8D8
:103D200014134FF48011C3F8801119600023136439
:103D3000FFF7ACFF02232370002383F3118810BD2B
:103D40000C0E00206CA7000800100240005C004030
:103D500000E100E010B4C26F034610680178042946
:103D600014D1197A022911D15179012244898A404A
:103D700022420BD1DA691C6AA24201D19C692CB99A
:103D80009B6A10BC043B0432FFF744BC10BC704774
:103D9000406BFFF7DFBF000010B5064A064C1178F4
:103DA00024784B1C03F00F039C421EBF034C13707E
:103DB000605410BDE4110020E5110020D411002052
:103DC000F0B50D4B0D4C1B7826780D4CB34201D14C
:103DD0000020F0BD04EBC3056F788F4206D114F8C4
:103DE0003370874202D16D79954203D1013303F0DC
:103DF0000703EBE70120ECE7991500209815002058
:103E00005815002070B5244B244A1B781278244999
:103E10001343244C0A782370AAB113432370224B16
:103E20001B78002B2ED0214B93F90030002BACBF18
:103E300006231E2300221E48013BDBB2FF2B23D1A9
:103E40000AB100230B7020221A491648FEF772FDB2
:103E500008B3202213491748FEF7A6FC164B1B682F
:103E6000CBB1114A127842B1104A92F90020002ACF
:103E7000BFBF22786270062222705B680948BDE8E5
:103E8000704018470623D5E710F8015B002DD3D00A
:103E90000132D2B2D0E770BDD91400209A150020AB
:103EA000D2140020940E0020AA0D00204A120020F7
:103EB000960E002051120020AC11002028B1034BB7
:103EC0001A7810431870FFF79DBF7047D91400206F
:103ED00008B528B1FEF7B8FEBDE80840FFF792BF6D
:103EE00008BD000070B50E490E48FFF7CDF90D4E24
:103EF000054610B13046FFF767F90A2200217478B1
:103F00000848FEF7C7FC0A22064905487470FEF708
:103F10004BFC1DB9201E18BF012070BD0120FCE71D
:103F2000B11200208112002038B5002978D0CD28A8
:103F30000BD1FFF76DF87A4B40429871C0F3072020
:103F4000D871BDE83840FFF717BACE2803D1FFF784
:103F50005FF8734BF1E7CF2808D1FFF759F8704BA2
:103F600040421871C0F307205871EAE7D02803D106
:103F7000FFF74EF86A4BF4E7D92804D1FFF76AF847
:103F8000674B1872DDE7DA2803D1FFF763F8404288
:103F9000F6E7DB2805D1FFF75DF84042604B587229
:103FA000CFE7DC2802D1FFF755F8F7E700F12F0340
:103FB000DBB2072B1ED80123594AA0F1D104A3403C
:103FC000547823435370A0F1D103072B00F2A7804C
:103FD00001232F30C0B2534A834058B292F90130C6
:103FE000002900F099800343DBB25370BDE83840EC
:103FF000FFF778BFDD2805D14B4A137843F0010362
:1040000013709EE7DE2804D1474A137843F0020379
:10401000F6E7DF2828D1444A137843F00403EFE79A
:104020003F4BCD281A795C7942EA042212B20AD1B8
:10403000DC79E40910D000249C71DC716AB9002499
:104040003A4A147009E0CE2813D19C79DD7944EA0C
:10405000052424B2002CEEDC92B11A7A5B7A134369
:104060005AB20BB9324B1A70A0F1D103072BAAD95F
:1040700067E7CF280AD1002AEEDA00221A715A71B6
:104080009A79DC7952EA0422E7D1D8E7D02802D124
:10409000002AF2DCE0E7D92893F9084004D1002C8B
:1040A000DADD00241C72D7E7DA2802D1002CD3DA3B
:1040B000F7E7DB2893F9094004D1002CCCDA00247F
:1040C0005C72C9E7DC2802D1002CF8DCC4E700F1FF
:1040D0002F04E4B2072C09D80124A0F1D10504FA79
:1040E00005F55C7824EA05045C70B5E7DD2805D1A8
:1040F0000D4D2C7824F001042C70ADE7DE2804D19E
:10410000094D2C7824F00204F6E7DF28A4D1064DEF
:104110002C7824F00404EFE723EA000364E738BDB9
:104120009512002081120020A9120020AA1200205E
:10413000AB120020832808B503460FD1FFF740F8E3
:10414000C20746D55320FEF701FDFFF75BFE532063
:10415000FEF734FDBDE80840FFF754BE84280AD1BD
:10416000FFF72EF8430734D54720FEF7EFFCFFF7A3
:1041700049FE4720ECE7021FD2B2A02AE8D900F19D
:104180002002D2B2072A07D800F007030120984086
:10419000C0B2FEF759FDDDE700F15B02D2B2022AA0
:1041A00004D8BDE808400020FFF736B800F15802F7
:1041B000D2B21A2A04D8BDE808400020FFF748B858
:1041C0003333DBB2122B04D8BDE808400021FFF7DF
:1041D000ABBE08BD08B5A8B182280FD1FEF7F0FF2D
:1041E00083070FD53920FEF7B1FCFFF70BFE39200E
:1041F000FEF7E4FCBDE80840FFF704BEBDE8084058
:10420000FFF798BF08BD00002DE9F0412D4C8EB09E
:1042100063782178227941EA0321A378E67841EA9C
:1042200003416379E57942EA0322A379607A42EA9D
:104230000342237A41EA066143EA002342EA056227
:10424000684603F0ABFB08AD0A2269462046FEF73C
:10425000ABFA0BAE0A2221462846FEF7A5FA95E8EE
:10426000070003C60BAF394632800DF114080A224D
:104270002046FEF799FA0A2221464046FEF794FAB4
:1042800098E807003B4603C32B46328097E80700B7
:1042900003C329461A8020460A22FEF785FA0A4AF5
:1042A0006378527813436370FFF71CFE074B38B9ED
:1042B0001878002200F001001A700EB0BDE8F081FD
:1042C0000120F6E78112002095120020D31400206F
:1042D00008B5064B4FF4806200211846FEF7DAFA63
:1042E0004FF48162C0F8002408BD00BF9C15002077
:1042F000074B02301B7843B1064B93F90030002B7B
:1043000003DA1E220021FEF7C5BA0622FAE700BF33
:10431000AA0D00204A12002010B500240A4B0B48B9
:104320001C70FFF7E5FF2046FEF776FF2046FEF7FC
:104330008FFF074B1C70FFF765FDFEF7AFFEBDE872
:104340001040FFF719B800BFD9140020940E0020C8
:104350009A150020302373B583F311882C4CD4F8C0
:1043600050311A68117804294DD194F8DC100229D3
:1043700049D11979012312898B40134243D1D4F8D2
:104380002831D4F82C2193423DD1D4F82421002A9D
:1043900039D0D4F84021002A35D0043AD21A32D08C
:1043A00000261A60D4F824211A48013AC4F82421BE
:1043B000D4F8342101A91344D4F83021C4F82831A9
:1043C000934228BFD4F83C31C4F8406128BFC4F8F8
:1043D0002831FFF7DDF8D4F8503105461A7E52B186
:1043E00001981A693146121A2844FEF753FAD4F894
:1043F00050311B690193D4F850012A460179019B81
:104400000068FFF7EBFA002383F3118802B070BD58
:10441000440C00205C0D002070B500EB81030546C4
:1044200050690E461446DA6018B114220021FEF7D6
:1044300031FAA06918B114220021FEF72BFA314697
:104440002846BDE87040FFF7C9BB38B5044618469A
:104450002379052B0CD003231F252371E36901F178
:104460000061DD60FEF7A0F902230020237138BD52
:104470000120FCE72DE9F84F394E3A4DD6F800A05F
:10448000394B0A28814693F80080AAEB050414D121
:10449000A4B2B4FBF8F308FB13440623A8EB04040E
:1044A000E4B2B4FBF3F4013CE4B2FF2C01D1BDE86B
:1044B000F88F2020FFF7DEFFF5E70D28A7B211D116
:1044C000B7FBF8F33C4608FB1373A8EB0303DBB21E
:1044D0001C44B4F5007FA4BF00231F463B441D4489
:1044E0003560E4E74FF0060B51465A461F48FEF789
:1044F0005BF9B9F1DF0F5A462BD900215046FEF780
:10450000C9F9062251461948FEF714FA68B101228A
:104510001749A4B208887B09053402FA03F3640939
:10452000034302FA04F41C430C80BB1D9BB2B3FB93
:10453000F8F208FB1232A8EB0202D2B2052A9CBFA5
:104540009B189BB2B3F5007F28BF00232B44336038
:10455000ADE7084950460BFB0911FEF725F9D0E7F6
:10456000BC140020BC120020C4140020C61400207B
:10457000C014002068A00008034608469918B1F549
:10458000806F03D802491944FEF70EB9704700BF87
:104590009C150020002307B502220DF10601ADF89D
:1045A0000630FFF7E9FFBDF8060003B05DF804FB35
:1045B000002307B501220DF107018DF80730FFF741
:1045C000DBFF9DF8070003B05DF804FB252008B56C
:1045D000FFF7EEFF232801D0002008BD2620FFF7BB
:1045E000E7FF1128F8D12720FFF7E2FFA0F1190318
:1045F00058425841F1E708B52820FFF7D9FF08BD18
:10460000032838B517D8042915D8042A13D80A2541
:10461000520005FB0122322505FB002505F129008A
:10462000FFF7C6FF040205F12A00FFF7C1FFA4B29D
:10463000204380B238BD0020FCE782B0ADF8041002
:10464000C1F30721042908D89DF80420042A04D8BE
:10465000032802D802B0FFF7D3BF002002B0704792
:104660007FB503240F4BADF804001E780E4B1B786A
:104670001E4346FA04F3DB07E5B205D4013CF8D249
:104680000025284604B070BDBDF804302846ADF8BA
:104690000C300399FFF7D1FFFEF7C6FB80B201286B
:1046A000ECD0EEE7801200206111002013B50288E3
:1046B0004379ADF80420019873B169B1FFF7D0FFD9
:1046C000044601460198FEF7C7F92046019902B059
:1046D000BDE81040FFF7B1BFFEF7EAF90446F4E782
:1046E0001FB5ADF804000198FFF7BAFFBDF804301C
:1046F000ADF80C300399FFF7A0FF05B05DF804EBAF
:10470000FEF792BB08B503460079B0B11888FFF7F1
:10471000E7FF0346C3F30333062BC0B213D094BFA5
:104720000E33063303F00F03012B10D8F02810D0FE
:1047300004D8E7288CBF0020012008BDF42814BF4E
:1047400000200120F9E7E72803D9F128F7E7002046
:10475000F3E70120F1E70A4608B501466423782013
:1047600004F09EFFB0FA80F0400908BD074B10B579
:104770001B784BB1064C237833B102210548FFF773
:10478000EAFF08B10023237010BD00BFC21400204F
:10479000BB120020FA9F00080A4B10B51B7883B1AA
:1047A000FEF7B2FD084C094B00F56A406030186016
:1047B000237833B902210648FFF7CDFF08B1012362
:1047C000237010BDC2140020BB120020CC140020A6
:1047D000FC9F0008054BD96808751868026853608B
:1047E0001A6001220275D860FDF72ABDE00F002093
:1047F00010B50A4C23699A6891420CD85A688160B6
:104800000360426010609A685860511A99604FF0D6
:10481000FF33A36110BD1B68891AECE7E00F00208D
:1048200030B50E4B0446DD684B1C87B012D00C4BE4
:1048300068460393002304950593FFF7D9FF2046AC
:10484000FFF7C8FF009B13B16846FEF747FEA86953
:1048500007B030BDFFF7BEFFF9E700BFE00F002053
:10486000A74E0008054BDB6821B103609861032067
:10487000FFF7D6BF4FF0FF30704700BFE00F0020BA
:1048800070B5302304460D46164683F311880F4851
:104890000378042B03D0002383F3118870BD012318
:1048A0000289A34013420AD000EB8400C3684FF48E
:1048B0007A7158690C30FFF7D5FF0130EBD03346E1
:1048C0002A4621460148FFF789F8E4E70C0E00204C
:1048D00013B5114CA379EBB1104B1B68C3B1072280
:1048E000A37869468DF80130E37804208DF8023012
:1048F00023798DF800208DF8033063798DF804302A
:1049000023788DF8053063788DF80630FFF7B8FF0F
:104910000023A37102B010BDEE110020AC110020E5
:1049200010B50D4B04461B7853B9014608220120EF
:10493000FFF7A6FF202221460848FDF735FF10BDEE
:10494000074B014693F90030002BABBF0822202211
:1049500001200420ECE700BFAA0D0020291200204E
:104960004A12002010B5044601460A220420FFF72F
:1049700087FF0A2221460248FDF716FF10BD00BF3F
:104980009F120020014603220420FFF779BF000098
:1049900070B504460D46104EE3683BB12369002014
:1049A0001A1DA262E2691344E3620EE0237A6BB936
:1049B000F36875B162681C605A6029461360042070
:1049C0006360FFF72DFF0028E6DA70BD6FF001008D
:1049D000FBE74FF0FF30F8E7E00F002070B5302321
:1049E0000D460446114683F31188866A2EB9FFF7F7
:1049F000CFFF10B186F3118870BDA36A1D70A36A42
:104A0000E26A01339342A36204D3E1692046043988
:104A1000FEF7CCFD002080F31188EDE74FF0FF3268
:104A20004430FFF7DBBF4430FFF7D8BF2DE9F84F24
:104A300004460E46904699464FF0300A8AF3118894
:104A40000025AB46A76A4FB949462046FFF7A0FFAD
:104A500020B187F311882846BDE8F88FE76AA06A7D
:104A60003A1AA8EB0507974228BF1746402F18D9D6
:104A700031464022FDF798FEA36A40364033A362D8
:104A80004035A26AE36A9A4204D3E16920460439B8
:104A9000FEF78CFD8BF311884545DCD28AF3118833
:104AA000D0E731463A46FDF77FFEA36A3E443B44D9
:104AB000A3623D44E5E74FF0FF334430FFF7B6BF54
:104AC0004430FFF7B3BF000070B504460D46104EEA
:104AD000E3683BB162690020131D1268A3621344AE
:104AE000E3620EE0237A6BB9F36875B162681C600B
:104AF0005A602946136004206360FFF791FE002886
:104B0000E6DA70BD6FF00100FBE74FF0FF30F8E729
:104B1000E00F002070B53023044683F31188866AC5
:104B20003EB9FFF7D1FF054618B186F31188284634
:104B300070BDA36AE26A13F8015B9342A36202D3D9
:104B40002046FEF713FD002383F31188EFE74FF0B3
:104B5000FF310C30FFF7DEBF0C30FFF7DBBF2DE974
:104B6000F84F04460E46904699464FF0300A8AF3B5
:104B700011880025AB46A76A4FB949462046FFF782
:104B8000A3FF20B187F311882846BDE8F88FE76AB4
:104B9000A16A7A1AA8EB0507974228BF1746402F4B
:104BA00016D930464022FDF7FFFDA36A4036403358
:104BB000A3624035A26AE36A9A4202D32046FEF716
:104BC000D5FC8BF311884545DED28AF31188D2E7F4
:104BD00030463A46FDF7E8FDA36A3E443B44A362F3
:104BE0003D44E7E74FF0FF330C30FFF7B8BF0C3020
:104BF000FFF7B5BF38B5044608480D4603680BB14A
:104C0000FEF76CFC064B0561C3600023214643613F
:104C10000248BDE83840FFF7EBBD00BF101200208E
:104C2000C94D000838B590F87430044603F07F028F
:104C3000212A7AD113F0800F90F8750031D0022824
:104C40002AD003281ED001286FD194F878305BB1A8
:104C5000022B94F876200DD0504B1A70A36694F86E
:104C60007A30E36600232CE04D4AA2660822E26611
:104C7000236738BD022AEFD14A4BA3660A23E366B5
:104C80000023F5E7B4F87820002A4ED10120464BE6
:104C9000E066A3662267ECE70120444BE066A3666A
:104CA000EEE70A2838D00B280ED009283DD194F819
:104CB000782012F0FD0F38D13D4BA3660223E36646
:104CC0003C4B23670120D4E7B4F8783003BB94F859
:104CD0007650354B002D14BF012200221A7017D1D7
:104CE000324B1A78A2B1302282F311881878324BF5
:104CF0004FF47A72A0FB03030021002300F2E73097
:104D0000FDF7B4FA21468000FFF774FF85F31188A0
:104D10000023A366E366D4E7284994F8772009784E
:104D2000224BCD091A70F3D1DCE740F28162B4F86E
:104D30007410914214D194F87920616894F8783015
:104D40004D6843EA0223204694F8762094F87710C1
:104D5000A84708B900208CE74368A366036880E78A
:104D6000174A92F8B620002AF4D003F06003202BF3
:104D7000F0D194F875300020212B08D81F2B7FF636
:104D800078AF104BA3660723E36620679AE7222BD0
:104D90007FF46FAFA066E066F7E700BF3415002030
:104DA000291200209F120020AA0D00200C120020C2
:104DB000E014002075340008A08601004A1200208B
:104DC000440C0020AB0D002038B50C46302383F393
:104DD00011880B78042B03D0002383F3118838BD8E
:104DE000124B1B78DB09F7D1114D2B78002BF3D038
:104DF000104B1B78002BEFD00B899B0705D40823A1
:104E0000012120460C4AFEF7E9FD28780B4B4FF4B0
:104E10007A72A0FB03030021002300F2E730FDF7C4
:104E200025FA21468000FFF7E5FED5E74A1200206B
:104E30000C120020AA0D002029120020A0860100DB
:104E400000238268037503691B6899689142FBD24D
:104E50005A6803604260106058607047F8B50546B4
:104E60000E4600270468AC4200D1F8BDE368334326
:104E7000E36023691E420AD06068A368C2691343D5
:104E8000027DC3610A2A04D18269134207D12468D2
:104E9000E9E70B2AFBD1826932EA0303F7D1876184
:104EA000FFF7CEFFF3E708B50846302383F31188F8
:104EB0000A7D0023052A06D8DFE802F00B0505036A
:104EC000120E826913604FF0FF338361FFF7B8FF62
:104ED000002383F3118808BD8269936801339360CE
:104EE0004268036813605A60EDE70346006820B12A
:104EF00000221A608161FFF7A3BF70470B0710B54E
:104F000004461CD5FEF74FFC03699B6833B10522AC
:104F10000021027098472378052B03D102232370C8
:104F200000232361302383F311884FF0FF3104F114
:104F30001400FFF7DAFF002383F311880EE08A07DD
:104F400021D503691A7852B15B683BB10422027023
:104F500098472378042B01D10323237010BDFEF75B
:104F600022FC03695B682BB1042202709847237806
:104F7000042B03D10223237000232361302383F306
:104F800011880021D3E74B07E8D503695B68002B44
:104F9000E4D0BDE81040184738B511F0080404D03B
:104FA00072B6134B134ADA65FEE7C26A436B556863
:104FB000296821F00F012960557B11680E22AA4053
:104FC0004A605A6822F480525A601A6822F4806259
:104FD0001A601A6842F400721A60302383F3118851
:104FE00021461C30FFF781FF84F3118838BD00BFD4
:104FF000E00F0020559B0008F8B590F86430044697
:1050000013B1002380F86430A44B04F174001B6DCD
:1050100003F1804303F5C04303EB01139B6803F1E5
:10502000005303F540535B0003F1100219460433AB
:105030000968934220F8021BF8D163689B681BBB88
:1050400094F8743013F0600546D048F2800093491C
:105050000B6823F4F04323F0400383F01002024373
:105060000A600B6823F4904323F0700383F48053A9
:1050700003430B6063681B6813B106212046984701
:10508000062384F86430F8BD204698470028D7D01E
:1050900094F87B2094F87A3043EA0223E26E9A4235
:1050A00088BFE36694F97430E56E002B4FF030034F
:1050B00080F26181002D00F05081092284F8642083
:1050C00083F311880021E36E2046A26EFEF786FC72
:1050D000002383F31188D6E794F8752003F07F034B
:1050E00043EA022340F20232934200F0128121D8B7
:1050F000B3F5807F4ED00DD8012B45D0022B00F0A8
:10510000B280002BA1D104F17C02A2660222E266E9
:105110002367BDE7B3F5817F00F0CA80B3F5407F18
:1051200093D194F87630012B8FD1B4F87C3043F0D2
:10513000020338E0B3F5006F3FD01DD8B3F5A06F80
:1051400037D0A3F5C063012B3FF67FAF94F87920E9
:10515000616894F878304E6843EA0223204694F858
:10516000762094F87710B04700283FF46EAF43687C
:10517000A3660368E3661AE0B3F5106F22D040F629
:10518000024293427FF461AF454BA3660223E3667C
:105190000023BDE794F87630012B7FF456AFB4F8C6
:1051A0007C3023F00203A4F87C30A566E566256711
:1051B0006EE73C4BA566E566AAE704F17F03A366AC
:1051C0000123D7E72378042B3CD1302383F31188C4
:1051D000A36804F1100603F00113A36004F12C0787
:1051E00056F8043B7BB1586920B16FF001010C30D7
:1051F000FFF77BFE56F8043C986920B16FF001017F
:105200000C30FFF772FEBE4246F8045CE8D1402342
:1052100001220021C4F88430930003F1804303F598
:10522000B84318680132082A18601960F4D181F374
:10523000118884F87F100321636821701B680BB10B
:105240002046984794F876304BB184F87F30042399
:10525000237063681B6813B102212046984700231E
:10526000A366E36654E794F8783003F00F0213F076
:10527000800F0A4B53F8223008D013F030033FF46C
:10528000E4AE102B14BF084B084B7EE713F44053D9
:105290003FF4DBAEB3F5805FF4E700BF005C004095
:1052A000CCA70008ED350008CC9E0008A8A5000892
:1052B00094F87630002B7FF4C8AE94F8782012F082
:1052C0000F03CCD09B0003F1804312F0800F03F555
:1052D000B8431A6810D002F03002302ABFD01A68E2
:1052E00022F4F04222F0400282F0200242F4004216
:1052F00042F080021A60B2E702F44052B2F5405F19
:10530000ADD01A6822F4F04222F0400242F420426A
:10531000EEE794F87630002B7FF497AE94F878306F
:1053200013F00F019BD01F4A13F0800F52F8213069
:1053300015BF23F4F04323F4904323F0400323F0FC
:10534000700314BF83F0100383F4805343F40043CD
:1053500043F0800342F8213081E7142284F864206E
:1053600083F311882B462A4600212046FEF752F986
:1053700081F3118887E63DB1152284F8642083F318
:105380001188E36EA26EEFE70B2284F8642083F3AA
:1053900011882B462A4629462046FEF71FFB85F337
:1053A000118870E6005C004038B5302300F10C0530
:1053B00083F31188174B4169DC6891B9236A446112
:1053C0008361256221E08B600B7D7BB1062B14D1BC
:1053D0000B684A68886913605A60FEF791F88B6918
:1053E0009968A3688A689342EDD806E04A680B681A
:1053F000084613605A60FFF723FD28462146FEF752
:105400007FF80620A561FFF7E5F9002080F31188F9
:1054100038BD00BFE00F002003460068834206D07D
:1054200002681A60536000238361FFF709BD70476B
:1054300000EB81032DE9F3419C6A05460E465CB3FF
:10544000302383F311880821201D05EB8607FFF721
:1054500005FDFB6804F144085B691B6873B1236DAB
:10546000226E01332365A36D40461344E26DA365AC
:10547000934224BFA36EA365FFF7CEFF404601A968
:10548000FEF786F8024650B1019B31462846FEF7EA
:10549000A5FA002383F3118802B0BDE8F081FB6810
:1054A0005A691268002AF4D01B8A013B1342F0D1DA
:1054B000E36F1B7E002BECD105F17402E5E711319F
:1054C00010B550F821402CB3302383F31188042108
:1054D0006018FFF7C3FCE26F04F10C001368527907
:1054E00003EB8203DB689B695A68E3691A60A2696F
:1054F0000132A261A26A1344626AE361934224BF4B
:10550000236BE361FFF788FF2046FEF723FC0023AF
:1055100083F3118810BD38B504466FF0010520688B
:10552000844200D138BD036823605C608561FFF769
:1055300087FCF4E738B50546084605297CD8DFE83E
:1055400001F0607B0360607C302383F31188444C5E
:1055500001212846434AFEF75FFF04212846424ABC
:10556000FEF75AFF284694F8B41004F14402FEF7FF
:1055700053FF94F8B510284604F16802FEF74CFF7B
:1055800094F8B61021B1284604F18C02FEF744FFCE
:105590000025D4F804313548C4F8F430C4F8F030AC
:1055A000C4F8EC50C4F80851C4F80C51FFF7B3FF2D
:1055B000D4F838312E48C4F82431D4F83C3184F87A
:1055C000E850C4F82C31C4F82831C4F84051C4F86C
:1055D0004451FFF7A0FF0121264884F82051FFF72E
:1055E0003DFC2548FEF7B6FB85F31188234B1B785D
:1055F00013B10520FEF7D0FB0220BDE83840FEF7CE
:10560000CBBBFEF7C9FB302383F311880125144C73
:10561000022104F1D800FFF721FC04F1E00084F836
:10562000E850FFF778FF04F58C7084F82051FFF7FD
:1056300072FF002383F3118838BD302383F3118870
:10564000074C012104F1D800FFF708FC002384F87F
:10565000E83084F8203183F311880520CDE700BFBE
:10566000440C0020D4A5000840A70008240D002009
:105670005C0D00201C0D0020180D00207112002070
:1056800038B50446FDF786F92518A54200D838BD7F
:1056900014F8010BFEF7EEFEF7E700002DE9F04FDE
:1056A000914C85B02378002B00F01A818F4B904FDE
:1056B00090481F60FFF7E4FF8F4B1878FDF798F9CB
:1056C000032836D8DFE800F0022F31338B48FFF78C
:1056D000D7FF8B48FFF7D4FFFDF772FD894B10F021
:1056E000010FC5B2884808BF1846FFF7C9FF874BAE
:1056F00015F0020F864808BF1846FFF7C1FF854B1B
:1057000015F0040F844808BF1846FFF7B9FF834817
:10571000FFF7B6FF824B1B78042B24D8DFE803F099
:105720000B1B1D1F21007F48D1E77F48CFE77F4833
:10573000CDE77F48CBE77F48FFF7A2FF7E48FFF722
:105740009FFF7E4B1B78022B2ED0042B0DD0012BFC
:1057500028D17B480AE07B48EEE77B48ECE77B48B2
:10576000EAE77B48E8E77B48E6E77B487B4DFFF7C5
:1057700087FF7B48FFF784FF2B88BBB9794B1B78E9
:10578000002B00F0AD80FDF7BFFD774B1B68C01A02
:105790006FF00043984280F0A38005B0BDE8F04F61
:1057A000FEF7E4BF7148E1E77148DFE72378002B9B
:1057B000E4D0704B1C78002CE0D1FEF7EDFF2A8876
:1057C000002ADBD02346DEB242FA06F1C9071C46A6
:1057D00003F10103F7D5684D2B7813F0010F674BE8
:1057E0006ED0F200D2B29A7007320021DA70032232
:1057F00059719A7107216148FEF7ADFF0028BDD0AD
:105800002B78E4B2DB074FEA441464D52022002150
:105810005B48FDF73FF80420DFF868B1DFF868A1C6
:1058200000251BF8013B1AF8012B2344FB180293B7
:10583000534B013A1A44C5F10703DBB2039301232A
:105840004FF0000C03FA05F912F8018F5FFA89F99D
:10585000029B13F80C10039B09EA0101A3EB0C0354
:1058600003F0070301FA03FE5B4203F0070321FA8A
:1058700003F34EEA03030CF1010C48EA0303BCF105
:10588000080F5FFA83F8E3D10135082D82F8008014
:10589000D1D1013810F0FF00C2D16423009320233E
:1058A000374A4021782003F033FF00287FF466AFA9
:1058B00001232A4AB340168826EA030616805DE7CC
:1058C000720102F06002C4F385019A701F325971AF
:1058D000DA7099718EE764233A1900932023E0E788
:1058E00005B0BDE8F08F00BFC2140020BC1400203A
:1058F000BC120020859B000880120020909B0008AD
:10590000AE9B0008679B0008619B0008739B000822
:105910006D9B00087F9B0008799B0008BE9B0008D8
:10592000ED110020969B00089C9B0008A29B00089C
:10593000A89B0008C99B0008ED9B0008B01200203E
:105940000A9C0008CF9B0008D59B0008DB9B000841
:10595000E19B0008E79B0008F89B0008C0140020AA
:10596000B89B0008BB120020CC140020FE9B00084E
:10597000049C0008C5140020C31400203C0C002027
:105980000C15002064A7000868A7000870470000F5
:10599000194B1A6842F001021A601A689007FCD588
:1059A0001A6802F0F9021A6000225A605A6812F06E
:1059B0000C0FFBD11A6842F480321A601A68910306
:1059C000FCD55A6842F4E8125A601A6842F08072B4
:1059D0001A601A689201FCD51221084A5A60084AD6
:1059E00011605A6842F002025A605A6802F00C02D2
:1059F000082AFAD1704700BF0010024000641D0061
:105A0000002002407047FEE770B50825134C60681F
:105A100023680146A268043B8A4219D8D31C1B1A8A
:105A2000C11E23F003038A4238BF00231844E368F1
:105A3000C11EDA1C121A22F00302994288BF00220A
:105A40000021FCF727FF013D04F11004DFD170BDF8
:105A500053F8046F41F8046BDEE700BFC0A60008EE
:105A60000C4B10B41868D968026853601A600122A0
:105A7000D860002302758A680B750B691B689C68E7
:105A80009442FBD85A680B604A6010BC11605960A0
:105A9000FCF7D6BBE00F0020044B1A68DB68926865
:105AA0009B689A4201D9FFF7DBBF7047E00F0020E7
:105AB000164A38B500F10C010346D068302282F353
:105AC0001188DC689A69A14202621BD0446A82B9DB
:105AD0008460D8680268DA605160026A58619A612D
:105AE0000162FFF7ADF9FFF7D7FF002080F31188BF
:105AF00038BD1568AA4203D0AD68AC4238BF2C4609
:105B0000D268E4E700225A61EFE700BFE00F00200F
:105B1000302370B583F31188204A1378012B1BD0F2
:105B20004FF400211E4B4FF48010C3F88010C3F8CF
:105B30008011002183F81313C3F88000C3F880019B
:105B400083F814130321174B196403F5DA33D96969
:105B500021F40001D961DB69002601230824124DDC
:105B60005660137055F8043B7BB1586920B16FF053
:105B700001010C30FFF7B9F955F8043C986920B1E0
:105B80006FF001010C30FFF7B0F9013C45F8046CEF
:105B9000E8D1FFF781FF84F3118870BD0C0E00205F
:105BA00000E100E0005C0040180E0020302383F389
:105BB0001188034BDB6898610F20FEF70BBE00BF16
:105BC000E00F002008B50146302383F31188082038
:105BD000FEF726FE002383F3118808BD832810B545
:105BE000044613D1FDF7ECFAC20778D45320FCF732
:105BF000ADFFFEF707F942F21070FFF7E3FF532005
:105C0000FCF7DCFFBDE81040FEF7FCB884280ED19D
:105C1000FDF7D6FA430762D44720FCF797FFFEF75B
:105C2000F1F842F21070FFF7CDFF4720E8E7031FBD
:105C3000DBB2A02B25D82A4B1B7893B1294B93F9C3
:105C40000030002B0DDA284B00F0070103EBD003E6
:105C50009A7801238B401A420DD12046FCF776FF3B
:105C6000D0E70023214A12F8011B8C4203D00133F4
:105C7000062BF8D1F1E72046FCF7A0FFFEF7C2F8AB
:105C8000EBE700F12003DBB2072B08D80124184B07
:105C900000F007001A78844014431C70B2E700F14A
:105CA0005B03DBB2022B05D8BDE81040243880B27C
:105CB000FDF7B2BA00F15803DBB21A2B06D8BDE8E3
:105CC00010400C4A32F81300FDF7C2BA3334E4B284
:105CD000122C04D8BDE810400121FEF725B910BDF3
:105CE000AA0D00204A120020940E0020960E0020DB
:105CF000D9140020209C000808B5C8B1822813D10F
:105D0000FDF75EFA830713D43920FCF71FFFFEF777
:105D100079F84FF4FA50FFF755FF3920FCF74EFFA2
:105D2000BDE80840FEF76EB8BDE80840FFF756BF73
:105D300008BD38B5392805460CBF50240024FFF7AC
:105D4000DBFF24B92846BDE83840FEF743BA64209B
:105D5000013CFFF737FFA4B2F3E700002DE9F04163
:105D60001F460C461646244B68B11970FDF7CCFA55
:105D7000224B04F0070418800120A040C0B2BDE807
:105D8000F041FEF79BB81D788D422ED11B4BB3F826
:105D90000080FDF7B9FAA0EB080292B2C72A24D816
:105DA00006F12004B542E4B211D04FF0010805F02D
:105DB000070508FA05F0C0B2FEF78AF8072C06D8E6
:105DC00006F0070008FA00F0C0B2FEF777F8384690
:105DD000FFF7AFFF072C0DD8012006F00706B040F3
:105DE000C0B2BDE8F041FEF773B8012004F007042B
:105DF000A040F5E7BDE8F081DC140020DE140020AF
:105E00002DE9F34700250124DFF868A01A4EDAF8DF
:105E10000030AB4203D8204602B0BDE8F0873068BE
:105E2000164B40F2E7371968036829445B699847C5
:105E3000012888BF0024D6F80090DFF84480D9F804
:105E4000003048469B6901A99847012802D00FD825
:105E50000135DCE7BC46002101984FF47A72E0FB83
:105E600008C100236046FCF701FAFFF7ABFEE6E746
:105E70000024EDE7B40D0020E8110020A00D002063
:105E8000A08601002DE9F347FFF7BAFF044600287A
:105E900068D0FDF719F9DFF8D4800546002746469B
:105EA000384638F8021BFDF755F90446002851D052
:105EB0000237B7F5806FF3D1394600242C4BDFF859
:105EC000B4E0DFF8A8C01CF8018B4FEA0E1988EA8D
:105ED000030818EB08034FEA081A4EEB0E0249EAD2
:105EE000187913EB0A0342EB09024FEA481A13EB45
:105EF00008034FEA4E194EEB020249EAD86913EB48
:105F00000A0342EB09024FEAC81A4FEACE194FEAD8
:105F1000082013EB0A0349EA58694FEA0E2E42EBB8
:105F200009024EEA186E1B1842EB0E021B190139CA
:105F300002EB000EC7D1E846CDE9003E384638F8FE
:105F4000021BFDF707F9044620B10237B7F5816F50
:105F5000F4D10224012D01D1FDF7E0F84FF4816363
:105F6000C6F80034204602B0BDE8F0879C1500203A
:105F700025232284E49CF2CB044BD3F80034B3F500
:105F8000006F01D3FFF77EBF012070479C150020F2
:105F900010B5084C0146D4F80004FDF7DBF840B119
:105FA000D4F800340233C4F80034BDE81040FFF7E1
:105FB000E3BF10BD9C1500208318B3F5806F2DE959
:105FC000F34104460E4615463ED8464F074439462F
:105FD0003046FCF7AFFCB8B32A4631463846FCF7EA
:105FE000E3FBFDF771F8804620B902B0BDE8F0414F
:105FF000FDF794B8012D2AD0E30728D4B4F5804FDB
:1060000025D23378727843EA0223012B1FD8002B64
:1060100014BF6FF05F036FF07F03002043EA542347
:1060200063F30700630863F30F2080B2FFF7B0FF4C
:10603000012806D1023D02340236002DDAD1FFF7E5
:106040009BFFB8F1010FD0D002B0BDE8F0813F2C2A
:106050000DD8307844F04003DBB243EA0020FFF76C
:1060600097FF0128EDD1013D01340136E5E7052D0B
:106070002F4628BF0527052200210DF10300FCF75C
:1060800009FCC4F3024343EAC7033A4631468DF89C
:1060900000300DF10300230A8DF801308DF8024025
:1060A000FCF782FBBDF80000FFF772FF0128C8D1A2
:1060B000BDF80200FFF76CFF0128C2D1012D0DD001
:1060C000BDF80400FFF764FF0128BAD1032D05D9FC
:1060D000BDF80600FFF75CFF0128B2D1ED1B3C4480
:1060E0003E44AAE79C15002037B50C460546FEF74E
:1060F0005FFAA04207D0012228460DF107018DF872
:106100000740FFF759FF03B030BD10B5041E14BFA0
:106110002321FF212520FFF7E7FF002C14BF1121C9
:10612000FF212620FFF7E0FF002C18BF1921BDE852
:10613000104008BFFF212720FFF7D6BF032838B53E
:106140001D4616D8042914D8042A12D80A2452004D
:1061500004FB0122322404FB0024190A04F1290063
:10616000FFF7C2FFE9B204F12A00BDE83840FFF7AB
:10617000BBBF38BD2DE9F84F0024DFF84480474607
:1061800000255FFA84FA0EE0F2B25946504639F81B
:10619000023B0136FFF7D2FF052EF5D10135052D63
:1061A00007F10A0704D0B94600265FFA85FBEBE742
:1061B0000134042C08F13208E1D1BDE8F88F00BFAA
:1061C000F8A5000810B5F124204600210134FFF79E
:1061D0008BFFB4F5806FF7D110BD08B50020FFF735
:1061E00094FF28200021FFF77FFFFFF7C3FFFFF791
:1061F000E9FFBDE808400120FFF787BF37B50C462F
:106200000546FEF7C7F9A04207D0022228460DF145
:106210000601ADF80640FFF7CFFE03B030BD000029
:10622000094A08B55378C3F3800181420BD060F36B
:106230008203537004201188FFF7E0FFBDE8084097
:106240000220FCF7E9BC08BD4A12002037B5042241
:1062500000230C460DEB020101930546FEF78CF975
:10626000019B9C4206D0042228460DEB02010194BA
:10627000FFF7A2FE03B030BD042213B500240DEBDE
:10628000020113200194FEF777F9019B0C4AD9B261
:106290001360C3F30723013B0429DBB284BF1470EE
:1062A0000124032B08D9012353701320116802B075
:1062B000BDE81040FFF7CABF002CF6D102B010BDF8
:1062C0005415002010B5FCF7FFFE044618B9BDE8D0
:1062D0001040FCF723BFFFF793FDFDF7F9FF012CFA
:1062E000F5D010BD2DE9F04F0379054687B0002B9E
:1062F00000F03A850121FEF7D9F9034668790028B4
:1063000000F01E85A3F5EE4292B27F2A00F20385CB
:10631000DCB20F2C63D840F2FF30FEF749F90028B9
:106320005DD1F126002C34D1CDE90444DFF868A218
:106330003046FEF73DF9002406F101088DF8100003
:106340008DF8114000284AD001285CD14046FEF764
:106350002FF9B71C8DF81100002840D0431E022BE6
:1063600022D83846FEF724F903368DF812000028AB
:1063700035D08DF8134004AC2378002BD8D0012BF6
:106380006CD16378A078012B3FD10234FFF7D1FCA8
:1063900040E0B6F5806F22D03046FEF709F908B923
:1063A000631EDCB20136BDE7042813D102260DF1CD
:1063B00010083846FEF7FCF8F4B2013706F808007A
:1063C00068B17C2808D1013406ABE4B21C44002338
:1063D00004F8083C3E46CEE70136072EE9D16F4B64
:1063E0001B785E0700F0C0846B79002B00F0BC8442
:1063F0006B4B5B785C0740F1B784022007B0BDE8C7
:10640000F04FFCF709BC4646B5E7022B04D1023435
:10641000FFF772FC0134AFE7032B03D10234FDF721
:10642000D9FEF7E7042B01D00134F3E700274FF042
:106430000A0E5C4A0234835C61785B0704F1010C4C
:1064400006D4002FE6D06420FFF7BCFB013FF8E73D
:1064500030380EFB070764460846ECE7524A5349BA
:1064600012F803B0DA0811F8028051491AF80270E4
:1064700003F0070311F802901F4148FA03F817F0E0
:10648000010749FA03F308F0010803F0010902D0FB
:10649000E120FFF7A3FBB8F1000F02D0E620FFF7E1
:1064A0009DFB5846FFF745FCB8F1000F02D0E620EF
:1064B000FDF740FE17B1E120FDF73CFEB9F1000FFA
:1064C000A8D02C2062E701210320FFF70DFE012256
:1064D000384B1A7083E718B10120FCF7A9FA02E0E3
:1064E0000120FCF7AFFA032202210120FCF708FB90
:1064F00075E708B10220F0E70220F2E718B10320A7
:10650000FCF796FA6BE70320FCF79CFA67E7002894
:106510003FF465AF284A1378042B0EBF00230133E4
:10652000DBB21370254A137013201168FFF78EFE3B
:1065300055E7234A1378042B0EBF01230133DBB246
:1065400013701E4A5370EFE7A3F5F842183A062A73
:1065500038D8DFE802F00E12040A161A1E00E122F3
:1065600026231146FFF7FAFB39E72723E522E52129
:10657000F8E72623E122E021F4E72723E522E421BE
:10658000F0E72623E122E221ECE72723E522E621BA
:10659000E8E728230122EAE75E9F0008D0140020E4
:1065A0004A120020559A0008DE9E0008CE9E000880
:1065B000CE9E000861110020ED110020541500202E
:1065C000B0120020002800F098830021834AA3F530
:1065D000E0461170B2B2222A00F277830420FDF760
:1065E000D9FF7F4C013E2080212E12D8DFE806F033
:1065F00053BE5B21255F29636F35B639733D779DA7
:10660000417BA54781892D67316B4D8594AFB41CC3
:1066100057C6237843F00103237004202188FFF735
:10662000EDFDFDF779FEDAE6637843F00803637069
:10663000F3E7237843F00203EEE7237843F0040303
:10664000EAE7237843F00803E6E7637843F00103C1
:10665000EDE7637843F00203E9E7237843F01003A2
:10666000DAE7237843F02003D6E7237843F04003AA
:10667000D2E7FDF751FE237843F08003CCE723787F
:1066800023F00C0343F00C03C6E7637823F0030305
:1066900043F00303CBE723786FF30003BCE7637891
:1066A0006FF3C303C3E723786FF34103B4E72378A1
:1066B0006FF38203B0E723786FF3C303ACE763782B
:1066C0006FF30003B3E763786FF34103AFE7237819
:1066D0006FF30413A0E723786FF345139CE7237847
:1066E0006FF3861398E7FDF717FE23786FF3C71350
:1066F00092E7237823F00C038EE7637823F00303FB
:1067000095E72378C3F3800282F00102D2B262F3EC
:10671000820362F3C3037FE76378DA4302F0010286
:1067200062F3000362F3410381E72378C3F380122D
:1067300082F0010262F386136EE7FDF7EDFD237828
:10674000C3F3C01282F0010262F3C71364E70121B0
:106750000E20FFF7C9FC60E70021F9E72378C3F3B7
:10676000001282F0010262F3041355E72378C3F3A9
:10677000000282F0010262F300034DE76378C3F385
:10678000C00282F0010262F3C30350E7A3F5E842BE
:106790003F2A29D8DBB280B10F2B3FF620AE012172
:1067A000104AD808145C03F0070301FA03F32343EB
:1067B00013549171FEF78CF811E60F2B3FF60FAED4
:1067C0000120084ADC08115D03F0070300FA03F317
:1067D00021EA030313559071ECE700BFDC1400209D
:1067E0004A120020EE11002047F6774293423FF410
:1067F00072AE47F6784293423FF47BAE88B147F6DB
:106800005A42934200F0968067D847F6014293427D
:1068100000F0858047F60342934279D0B3F5F84FF4
:106820006ED02A886B79ADF80C200398002B00F00D
:106830008580FDF715FF044601460398FCF70CF927
:10684000BDF80C302046ADF810300499FDF7F5FE88
:10685000FCF7EAFAAB4F95F806A03E78044616F02E
:10686000070669794FEA1A1A23D00E4609B3C4F312
:10687000072303F0F002402A0BD004F12002D2B229
:10688000072A5FD9BAF1000F03D103F0E003202BF0
:106890005AD09D4B5E7816F004060AD00220019172
:1068A000FCF7BAF93B78019913F0070F0CBF0126EA
:1068B0000026C4F30338B8F10B0F00F2A780DFE81D
:1068C00018F0450045007E007E000E013301A50052
:1068D000A500370187019701970147F65B42934274
:1068E0002AD047F65C4293429BD1874B5878C0F33D
:1068F000800080F0010000F00100FFF791FC90E7BC
:10690000FDF70AFD46F2A810FFF75CF9FCF758FD09
:10691000FFF7D8FC4FF6FF710020FFF76FFCFDF783
:10692000FBFC46F2A810FFF74DF944F24D22774BDD
:106930009A62EBE70120E0E70020DEE7FCF7B8F819
:1069400004467DE70026B4E75646B2E7C4F30723C2
:10695000C4F3032913F0F00F18BF4FEA0919E4B28A
:10696000A1B1B9F1000F0DD004F12003DBB2072B68
:1069700000D94CB9664A137849EA030982F80090B5
:10698000FDF740FA20463FE0624AF4E72046FDF773
:1069900021FCB9F1000F39D004F12003DBB2072B41
:1069A00000D91CB94846FCF74FF905E0594A13785D
:1069B00023EA090982F80090FDF724FA26E0C4F3DF
:1069C000072303F0F003C4F30329202BE4B218BF1C
:1069D0004FEA09193CB1012C67D0002971D0BAF1F6
:1069E000000F3CD0CEE7484B5B78580733D459B3FF
:1069F000B9F1000F07D0464A137849EA030982F833
:106A00000090FDF7FFF90020FFF776F9A8F10808DC
:106A1000B8F1030F01D8FCF7CBFB76B1387810F052
:106A200001030AD16B71C008FCF702F82846FFF792
:106A300059FC3878C008FCF705F80021284607B053
:106A4000BDE8F04FFDF732BE0846FDF7C3FBB9F1D4
:106A5000000FDBD0A6E791B1BAF1000F03D1484691
:106A6000FDF72CFAD2E7BAF1010FCFD12A4A1378F9
:106A700039EA0301CAD049EA03031370C6E7BAF141
:106A8000000FC3D14846FDF723FA234A137819EAC9
:106A9000030F1CBF23EA09031370204A137819EA75
:106AA000030FB3D023EA0903E7E719B1BAF1050FE1
:106AB000ACD8D4E7BAF1040FA8D84846FDF708FAD5
:106AC000A4E7BAF1000FF8D0392C0CBF4FF4FA50FC
:106AD0000120FFF777F82046FDF77CFB96E714F4DA
:106AE000406FC4F3812307D0012B8FD1D1B1C4F300
:106AF0000900FCF7ADFB89E791B1C4F30900FCF78D
:106B00008BFB83E7D01400204A120020006C004069
:106B1000D91400209A150020D2140020D11400208E
:106B20000846ECE70846E4E7E0B2FDF7FDF96DE75B
:106B300014F4407F26D100297FF468AFC4F34211DA
:106B40008900CAB214F010011EBF0F219140C94341
:106B500004F00F03C4F3812003FA02F3844C18BF3E
:106B6000C9B2DBB202282DD003282FD0012803D0D0
:106B700022780B43134003E022781A4341EA0203D0
:106B8000237043E7C4F30122C9B112F0010F3FF4AF
:106B90003DAFC4F342118900CAB214F010011EBF08
:106BA0000F219140C94304F00F03C4F3812003FA7D
:106BB00002F318BFC9B26F4CDBB20228D3E712F060
:106BC000020FE4E722780B435340D9E70B43D7E7A2
:106BD0005FFA84F9C4F3032419B12046FBF728FFB8
:106BE0003DE74846FDF774F92046FBF72BFF0DE71C
:106BF0005FFA84F9A9F1F003042B4DD8DFE803F024
:106C0000032C141B260061B1BAF1040F3FF6FEAE4F
:106C1000C4F304200124574B84401A7854401C705C
:106C2000F4E6BAF1050FF1E7C4F304200029DCD142
:106C3000FBF7FEFEEAE64F4A31B10123C4F304201C
:106C400003FA00F41470E1E61170DFE6DFF8289132
:106C500099F801305A0704D4C4F304200029C4D0A1
:106C6000E6E771B1C4F304242046FBF7E1FE99F88E
:106C7000013020465B0742BFE30043F003033B7053
:106C8000D6E70120FBF7C8FFBAF1010F7FF6BEAED1
:106C90000220FBF7C1FFB9E639B1BAF1000F01D00C
:106CA0004846B1E6C4F30420C2E7BAF1000F09D0A8
:106CB000B9F1390F0CBF4FF4FA500120FEF782FFF3
:106CC000484609E7C4F304208FE747F6164293428B
:106CD0007FF45CAD294B1B7803F0AA03002B14BF93
:106CE00001220022264B14BF352029201A70FBF701
:106CF0002DFFFDF787F8FFF772BB47F61642934268
:106D00007FF444AD1E4B1B78002B14BF3520292087
:106D1000FBF754FFEDE7A3F5FC42052A3FF614AC60
:106D200001A151F822F000BFC7640008D764000831
:106D3000F3640008FD6400080F650008336500086F
:106D4000A3F5FC42052A3FF6FFAB01A151F822F062
:106D5000DF630008E1640008F964000807650008C3
:106D6000DF630008DF63000807B0BDE8F08F00BFF5
:106D700061110020801200204A120020D914002046
:106D8000EC1100201A4AF8B5937913F0F00F0AD1EC
:106D9000537943B1174B18491B780D7816885788DB
:106DA000164CAB4200D1F8BD04EBC3010879D0B159
:106DB00034F83300B04216D14879A0B94888C01BD6
:106DC00080B2C7280FD80120937960F3071393711D
:106DD0008B7960F307138B710548FFF783FABDE8E1
:106DE000F840FBF7A3BE013303F00703D9E700BF68
:106DF0000415002099150020981500205815002032
:106E00002DE9F043044685B08A4D062201466846C6
:106E1000FBF7CAFC2B7967792279E3B9CAB1AFB124
:106E20002046FDF76FFC064680B108222146284621
:106E3000FBF7BAFC2B79012B02D12888FDF750FC17
:106E4000FFF7A0FF304605B0BDE8F0832046FFF70E
:106E500049FA0126F6E7B4F802806B886E79A8EB50
:106E600003039BB2002E00F0AB80C72B00F288809A
:106E7000002AE7D0AB79298813F0F00F228850D18F
:106E800091420DD1002F40F0CF800122284662F3BD
:106E90000713AB71FFF726FAAB79A3710026D1E790
:106EA000002F40F0C18094F800803A466178404657
:106EB000FCF786FF4046FCF783FF05460028EDD12E
:106EC0008DF800808DF801100098FDF709FCC0F3E3
:106ED0000332032AC3B20AD8012A12D910F4706F00
:106EE00014D0A27912F0F00F10D12E46AAE7063284
:106EF00002F00F02012A0ED92046FFF7F3F93546BA
:106F0000F3E710F4706F01D0002BEED02033DBB22A
:106F1000072BEAD9F0E7EF2BE7D90F33DBB2022BCF
:106F2000F7E791420AD14FB92046A371FFF7DAF98A
:106F3000082221462846FBF737FC83E72046FDF769
:106F4000E1FB002882D0002F80D0AB791F2B0FD916
:106F50002A8802A8ADF808202A79ADF80A808DF8B1
:106F60000C2000228DF80E308DF80D20FFF7BAF9B5
:106F7000082221462F48FBF717FCFFF703FF68E7BD
:106F8000AB7913F0F00908D12846FFF7ABF90822D6
:106F900049462846FBF77EFC80E7002A3FF452AFC3
:106FA000298822889142C9D1002FC7D12046A371D8
:106FB000FFF798F9082239462846FBF76BFC41E7B2
:106FC000C72B2ED8002A3FF444AF3E46002F3FF493
:106FD0003DAF2A8823889A4216D1AB79DA070FD4BD
:106FE00013F0F0020CD0F02AA37106D0DBB2C3F389
:106FF0000312013262F30713A3712046FFF772F9FF
:10700000082221460B4896E72046FDF77BFB002827
:10701000AED1AB79204643F00103AB71FFF762F9C3
:1070200010E708223146C7E7AB7943F00103AB71A3
:1070300034E700BF04150020F0B589B06B4683E843
:1070400003009DF80510002209B129490A70ADF826
:107050000E2093E80300ADF80C10C9B2029002AC08
:1070600019B101212046FDF721FB94E8030004AE8D
:1070700086E803003046FFF7C3FE1E4F04461E4D50
:1070800038B996E803009DF8142006AB83E80300A6
:1070900032B91A4C28783B7883421DD109B0F0BD33
:1070A00038782A78461C06F0070696420AD0194618
:1070B000124B082203EBC000FBF776FB3E70FBF798
:1070C00035FDE6E7FDF728F9082221460C483C701B
:1070D0002C70FBF7DFFBDCE704EBC000FFF790FE52
:1070E0000028DBD02B78013303F007032B70D1E7A6
:1070F0009A15002098150020991500205815002099
:107100000415002073B5FCF7FFF80B4D84B22B88F3
:10711000A3420ED00026ADF80060FCF7F5F8ADF8FC
:107120000460ADF8020002AB13E90300FFF784FF2F
:107130002C8002B070BD00BF74120020EFF30983F1
:10714000203383F30988002383F3118870470000FC
:10715000F8B50446302383F311880778456B012F77
:10716000416039D19A2383628A2343624E4B98420D
:1071700032D14E4E052133694D4A43F40013336139
:10718000336923F400133361336903460620FCF7A7
:1071900071FB05212346474AE0620846FCF76AFB7B
:1071A00050224FF00041F369206343F40013F36170
:1071B000F369414B83F81F23C3F88011196083F8EA
:1071C0002023C3F884715F60636A43F440536362B1
:1071D000A36A43F44053A362E36A616B5A6805F102
:1071E00010039360226B6068526893604FF4004311
:1071F0004FF410622B6000232B606A604E68426877
:1072000026F03F063604360C077A4E604E6846F08C
:1072100024064E60294EB2421FDC294B520093FBDC
:10722000F2F32522C3F30B030A62CB6102780B68E9
:10723000022A9BB22FD0032A33D0012A02D123F095
:107240000A039BB20B602B68002043F001032B6004
:107250000223237080F31188F8BD1A4EB242E4DC99
:10726000022F0AD102EB4206154AB2FBF6F292B2A5
:107270001A4342F400430B22D6E7032F03BF19231E
:1072800053430F4A40F6FF7202BFB2FBF3F24FF4D2
:10729000804392B2ECE723F008039BB243F0020371
:1072A000D0E743F00A03CDE7B019002000100240F8
:1072B000994F00086139000800E100E0A086010054
:1072C00000512502801A060010B53023044683F3CE
:1072D00011880378012B23D0FCF722FB206BFCF7ED
:1072E00071FAE06AFCF76EFA0022114B22639C42AD
:1072F000E26215D14FF000410E4BC3F88010C3F885
:107300008011012183F81F23C3F88410C3F884116E
:1073100083F82023084BDA6922F40012DA61DB6972
:10732000002301226360227083F3118810BD00BF27
:10733000B019002000E100E000100240F8B504465A
:10734000302686F3118800258560032049002070CF
:107350002184606B85F31188216BA76A49680F60EF
:1073600041F28737CA604B60E36A626A5B681A6001
:10737000069ADA60079A5A602C4AD16986F3118816
:1073800083699B0702D403689B0524D5D3695B1AE4
:10739000BB421DD9236B59680A6822F00F020A60AC
:1073A0005A7B19680E2303FA02F24A60E26A5068B7
:1073B000016821F00F0101601168527B4FF0FF302E
:1073C00093404B6005232370002383F31188F8BD9D
:1073D00085F31188D2E74368089943F4007343604A
:1073E000036843F48073036004F11C00FDF73AFA6C
:1073F000D0B1236B59680A6822F00F020A605A7BE9
:1074000019680E2303FA02F24A60E26A5568296895
:1074100021F00F0129601168527B9340421C4B60A0
:107420000CBF05230223CEE70223CCE7E00F0020A8
:1074300008B50348FCF700FABDE80840FCF770B84F
:107440005C9E000808B50348FCF7F6F9BDE8084063
:10745000FCF766B86C9E000808B50348FCF7ECF929
:10746000BDE80840FCF75CB87C9E000808B50348FE
:10747000FCF7E2F9BDE80840FCF752B88C9E000822
:1074800008B50348FCF7D8F9BDE80840FCF748B850
:107490009C9E000808B50348FCF7CEF9BDE80840FB
:1074A000FCF73EB8AC9E000808B50348FCF7C4F9E9
:1074B000BDE80840FCF734B8BC9E0008032AF0B5CC
:1074C00028D10161154B9F5C002308221D461C46F4
:1074D0001E4611F0800F4FEA04144FEA03134FEADF
:1074E00006164FEA05150CBF44F00F043B4311F498
:1074F000004F0CBF46F00F063D43013A4FEA4101F1
:10750000E7D1426832402A43426002682240134376
:107510000360F0BD042A08BF4161D3E76E9F0008F5
:107520000F48F8B503224FF40071FFF7C7FF082595
:10753000002406464FF4807748207761FBF7B8FFB8
:10754000B3686400C3F34023E4B23761013D1C43D8
:10755000FBF7AEFF15F0FF05EED12046F8BD00BFEA
:10756000000C0140F8B50646104806224FF40071A1
:10757000FFF7A4FF072504464FF4807746FA05F38A
:1075800013F0010F4FF4007367614FF0900014BFC8
:1075900023616361FBF78CFF013D2761EED2BDE8FB
:1075A000F8404FF49070FBF783BF00BF000C014020
:1075B00070B520260C46054D40F080006E61FFF747
:1075C000D1FF2046FFF7CEFF2E6170BD000C0140B9
:1075D00010B50446FF217F20FFF7EAFFE1B28520C6
:1075E000FFF7E6FFBDE8104000217F20FFF7E0BF76
:1075F000194B2DE9F3411B785BB900231A46002093
:1076000092B262F30F009BB263F31F4002B0BDE879
:10761000F0814FF02008114F1220C7F81480FFF7B7
:10762000A1FFFFF77DFF0646FFF77AFF0546FFF74C
:1076300077FF0446FFF774FF3206C7F81080DCD5E9
:10764000020102F470622A4404EB002342F30B02AD
:1076500043F30B03D3E700BFA80D0020000C01404B
:107660000121F8B5044600F00F039940052220F0EF
:107670000F00FFF723FF664B9C4253D01AD804F14A
:107680004044A4F58434072C09D9FF2451E0002498
:107690000A23604E7362002C50D00020F8BD072CE6
:1076A000F3D8DFE804F045042124272A2D300024F4
:1076B0000123EEE7584B9C423DD004F14044A4F531
:1076C0008834052CE1D8052CDFD801A353F824F029
:1076D0008F7600082B7700080D77000813770008D5
:1076E000197700081F77000800240223D1E700243F
:1076F0000323CEE700240423CBE700240523C8E7B7
:1077000000240623C5E700240723C2E700240C2336
:10771000BFE700240D23BCE700240E23B9E70024B3
:107720000F23B6E700240823B3E700240B23B0E7B8
:1077300000240023ADE700240923AAE7374F384D82
:107740003B780BBB302383F31188364B6B602B786F
:10775000012B12D12B46344A06212046FCF78AF829
:10776000324A4368E8629A60314B9A6942F4007287
:107770009A619B69AB6A5C609C6002232B7000235A
:1077800083F3118801233B70302383F31188012395
:10779000EB600323274C2B7033782A6BAC602E618F
:1077A0000BB142F02002EB6A71885B682248DC6012
:1077B00059601A601A68316942F001021A60F26871
:1077C000AB6A11F4841F42F480725A6014BF41F412
:1077D000807241F4817242F0010211439960716933
:1077E000D960B1691961F169D962316A1963716A45
:1077F00059639A604FF0FF31FDF734F8002383F3AB
:10780000118800287FF449AF2088800846E700BF30
:10781000000C0140000C0020010C0140D80F00209A
:10782000B80D0020D40F0020FD4E00084C2401406C
:1078300000100240DA140020CC0D002070B5294C55
:10784000294E2046FFF70CFF30802848FFF708FF3D
:10785000274D28802046FFF703FF30802348FFF79D
:10786000FFFE20262880FBF72DFE204606224FF43F
:107870008071FFF723FE06224FF40071FFF71EFE12
:1078800006222021FFF71AFEFBF71CFE5A213A20A0
:10789000FFF78EFE41F27C50FEF794F9FBF712FEE3
:1078A00000206661FFF75EFEFFF73AFE05464820BE
:1078B000FBF7FEFD3E2D26610E4C10D100212D2040
:1078C000FFF776FE01230D2111202370FFF770FED4
:1078D0001020FFF77DFEBDE87040FFF789BE002352
:1078E000237070BD000C0140A6190020010C01405E
:1078F000AA190020A80D002070B58CB20D46FFF724
:10790000AFFE844245D080B23BDD201A4FF0FF34F9
:1079100000B2FAF77FFD06462846FAF77BFD0146DE
:107920003046FAF77FFE1C49FAF7C8FDFAF716FF52
:1079300000B200282DDBA4B26428D1BF444304EB7D
:10794000840404EB8404A40024B22046C4B1FAF7F2
:1079500061FD1149FAF766FE0146FAF7A7FC0546F4
:107960001420002CB8BF6442A4B2B4FBF0F0FAF7C4
:1079700051FD01462846FAF7A1FDFAF7EFFE40B2A5
:1079800070BD001BC4F57F74033425B200B201241E
:10799000BFE70020F4E700BF0000C8422DE9F04730
:1079A00086B00DF1040888E80E000746FFF720FEB8
:1079B0001E4B05B21C781E4B6D421E78001495FBC1
:1079C000F4F590FBF4F476B12DB20A224146384624
:1079D00024B2ADF80850ADF80A40FAF7E5FE384693
:1079E00006B0BDE8F087DFF84C90B9F800A0FBF7CF
:1079F0008BFCA0EB0A0080B20A2815D9FBF784FCA7
:107A00000D4BA9F80000B3F900100C48FFF774FF04
:107A10000B4B0646B3F900100A48FFF76DFF03460B
:107A20001D442DB2A41BD0E73346F9E7B012002065
:107A3000ED1100204C120020A6190020000C01407E
:107A4000AA190020010C0140F7B56F46002305215B
:107A50003D46A54E00938DF80430B446052201231F
:107A60004FF0000E5CF8040B441C44D020F00F04CF
:107A7000A46800F00F0024FA00F010F0010F0CBF12
:107A800018460020013A40EA0E005B0012F0FF02A7
:107A90005FFA80FEDBB2E5D14B1E13F0FF0107F861
:107AA00001EB06F11406D8D1052229468F48FAF7D2
:107AB00041FF8F4C08B3052229468C48FAF774FE23
:107AC00001232370FBF720FC8A4B1860894B1D684B
:107AD000FBF71AFC401B042812D90522834986486B
